:100000000C945C000C9479000C9479000C947900A9
:100010000C9479000C9479000C9479000C9479007C
:100020000C9479000C9479000C9479000C9479006C
:100030000C9479000C9442010C9479000C94790092
:100040000C94F8000C9479000C9479000C947900CD
:100050000C9479000C9479000C9479000C9479003C
:100060000C9479000C947900000000080002010053
:100070000003040700000000000000000000000072
:10008000250028002B0000000000240027002A0083
:10009000040404040404040402020202020203032E
:1000A0000303030301020408102040800102040836
:1000B000102001020408102011241FBECFEFD4E04D
:1000C000DEBFCDBF11E0A0E0B1E0E2E5F5E002C0A7
:1000D00005900D92A037B107D9F721E0A0E7B1E074
:1000E00001C01D92A138B207E1F70E9469010C948A
:1000F000A7020C94000090E0FC01EC55FF4F249106
:1001000080579F4FFC018491882399F090E0880FDD
:10011000991FFC01EA57FF4FA591B491FC01E458E7
:10012000FF4F859194918FB7F894EC91E22BEC936B
:100130008FBF089590E0FC01E859FF4F2491FC0126
:10014000EC55FF4F3491FC01E057FF4FE491EE2353
:10015000C9F0222339F0233001F1A8F4213019F13C
:10016000223029F1F0E0EE0FFF1FE458FF4FA59178
:10017000B4918FB7F894EC91611126C030953E236D
:100180003C938FBF08952730A9F02830C9F0243060
:1001900049F7809180008F7D03C0809180008F7728
:1001A00080938000DFCF84B58F7784BDDBCF84B5AB
:1001B0008F7DFBCF8091B0008F778093B000D2CF3E
:1001C0008091B0008F7DF9CF3E2BDACF8091760100
:1001D00090917701892B39F488EB92E29093770123
:1001E0008093760108951092770110927601089518
:1001F0001F920F920FB60F9211242F933F938F935C
:100200009F93AF93BF9380917D0190917E01A091C8
:100210007F01B091800130917C0123E0230F2D37C5
:1002200058F50196A11DB11D20937C0180937D019D
:1002300090937E01A0937F01B0938001809178011B
:1002400090917901A0917A01B0917B010196A11D55
:10025000B11D8093780190937901A0937A01B093B6
:100260007B01BF91AF919F918F913F912F910F9003
:100270000FBE0F901F90189526E8230F0296A11D20
:10028000B11DD2CF1F920F920FB60F9211242F9350
:100290003F934F935F936F937F938F939F93AF930E
:1002A000BF93EF93FF93E0917001F0917101099575
:1002B000FF91EF91BF91AF919F918F917F916F913E
:1002C0005F914F913F912F910F900FBE0F901F9014
:1002D0001895CF93DF9300D000D0CDB7DEB77894D8
:1002E00084B5826084BD84B5816084BD85B582603B
:1002F00085BD85B5816085BD80916E0081608093EC
:100300006E00109281008091810082608093810054
:100310008091810081608093810080918000816064
:10032000809380008091B10084608093B1008091BF
:10033000B00081608093B00080917A0084608093E7
:100340007A0080917A00826080937A0080917A00AE
:10035000816080937A0080917A00806880937A002F
:100360001092C10081E00E947B0080E00E947B002F
:1003700085E00E947B0086E00E947B0084E00E9472
:100380007B0083E00E947B0082E00E947B0087E08C
:100390000E947B0082E00E947B0083E00E947B0041
:1003A00084E00E947B0085E00E947B0080E18093D6
:1003B00081001092800084E294EF909387008093F4
:1003C000860083E18093810086EE90E09093710136
:1003D0008093700181E080936F0028EE622E23E00D
:1003E000722E04E610E03AE0E32EF12C46E7242ECC
:1003F00041E0342E58E5452E51E0552E60E0862E22
:1004000060E0962E2091760130917701C901B30109
:100410000E947F0260937201B8010E947F02609384
:100420007301C901B8010E947F02B7010E947F02D7
:1004300060937401C901B7010E947F028093750126
:1004400082E791E09C838B83ACE6B1E0BA83A98319
:1004500090E5A92E91E0B92E650161E0D6018D915C
:100460006D010E949A004C145D04B9F761E082E0CE
:100470000E949A0061E083E00E949A0061E084E0BB
:100480000E949A0061E085E00E949A0060E0E981A4
:10049000FA818191FA83E9830E949A00D12CC12CC0
:1004A000AB81BC81EC9190E080E0EA3038F4F0E080
:1004B000EE0FFF1FE85AFE4F808191818C0D9D1D2C
:1004C000FC016081D5018D915D010E949A00BFEF12
:1004D000CB1ADB0AE8E0CE16D10411F700008B81BD
:1004E0009C8101969C838B832816390609F0B0CF36
:1004F0008114910409F486CF0E94000083CF97FBFA
:10050000072E16F4009407D077FD09D00E949302BD
:1005100007FC05D03EF4909581959F4F0895709506
:1005200061957F4F0895AA1BBB1B51E107C0AA1F0D
:10053000BB1FA617B70710F0A61BB70B881F991F84
:100540005A95A9F780959095BC01CD010895F8942E
:02055000FFCFDB
:100552000101010100010100000000000000000192
:100562000101010000000000010001010101010080
:100572000100010100010100000101000001010070
:10058200010101010000010001010001010001005F
:100592000001010000000000000000000000010155
:1005A2000100050604030207480140013801300139
:1005B20028012001180110010801000102030405AD
:00000001FF
